:20000000020038FFFFFFFFFFFFFFFF020035FFFFFFFFFF020030FFFFFFFFFFFFFFFFFFFF54
:20002000FFFFFF027067FFFFFFFFFFFFFFFFFFFFC28CC2AA32057E327581071222A5740009
:20004000F5B812228412231A1263BA12231A7480902003F07480904003F074C0904002F02A
:2000600090084074007A0BF0A3DAFC9008487480F0532064740078927A10F608DAFCF54496
:20008000F545F54FF546752900752100756905752400752300752288752580532610752701
:2000A000D07528007529007520007550FF7566FF78A57A0F740FC39A126DDB5019B40403FE
:2000C0000200D6B405030200D67410F6087427F60874000200E074A0F6087486F6087401C4
:2000E000F6087400F608F608F608DAC890A600E0B45350A3E0B4454BA3E0B45446A3E0F575
:2001000046A3E0F547A3789212416EE0F522A3E0F569A378A5124169785E124173E0F5683F
:20012000A3E0F574A3E030E00DD20A301608746175F02B122A9D30E10AD20F746275F00391
:20014000122A9D301708746075F002122A9D90A684E0B44E02D24E90A685E0B44602C22F1D
:2001600020D51E12730C500574011273391273555005740212733912739950057403127381
:200180003912630712705D75A880753D141271B05387FBD20ED23790A685E0B44628C22FC9
:2001A0001271B01274E51271B0744275F021122A9D122396122396E529C0E0C24EC2291208
:2001C0001A32D0E0F529758107C23A303005C20E024677300E11C20E5320FC304D093020B4
:2001E000030208FF02079F30370BC237122313122C5A122343854465755D30302012201CBA
:20020000030208FF744275F01E122A9DC21CD240E546B40B06123D2F0202C7B40E0241157D
:20022000B408061239E10202C7B4095F201E09201E06201A033032030206F6123469900877
:200240004B7400F0E544B40203124628120D5A300E0221C6120C93300E0221C612231312BB
:200260002313302D1EE575B40303020278B40005797902027AB4060B7976123B5E90084BD2
:2002800074FFF01245FDC24F0202C7B40A20201E09201E06201A033032030206F61236A2D8
:2002A000200E05C24F0202C7126E06020945B40C0B854465123B7AC24F0202C7B40D0B856C
:2002C0004465123C29C24F020343B404030202D3B4053D301C3C9008087402F090080FF0F8
:2002E00090080EE544F0900815F0D235C236C0527552007530007531167532167533167579
:200300003416753516122026D052123F5A020310C21C1223D27940755D3012276AE546B477
:200320000721E5307004E5317003020341C39405400F9403500B202A0AD22A1222E802032F
:2003400043C22AE546B40403020408B40503020408B40B03020408B40E03020408302303B7
:2003600002036C30240302036C3025038545443017E8204CE5126DD9500CE5306003B40F6F
:200380007678310203887830E6C394025069B4FE7708E6601214707008E6B40903020408D8
:2003A000E544701C020408E544605D154408E6600BB4010E08E6B409030203C2E54460021F
:2003C0001544122981120D5A300E0221C6120C93300E0221C6D23A122C5A12631612231319
:2003E0003023030203EF3024030203EF302506854445122A3A21D3E5469013949314B54493
:2004000003020408F54461C2303A0AC23A122E7512234321C6202303020504A2359226907B
:20042000080EE0F56F788C9008081227FB120B915039120C054034302303120C46798C906D
:2004400008081227EDA2269235E56F90080EF0E546B40B0302045AB40E1190082FA982904B
:200460000829A882122809A2439241E546B40403020525B40503020525A2369226900815EF
:20048000E0F56F788C90080F1227FB120B91403C202747120C054034302403120C46798C2A
:2004A00090080F1227EDA2269236E56F900815F0E546B40B030204BBB40E1190082FA9827B
:2004C00090082CA882122809A2439242E546B40403020525B40503020525A228922690081E
:2004E0001CE0F56F788C9008161227FB12408E798C9008161227EDA2269228E56F90081C73
:20050000F002051A30240EE546B404028179B405028179811B30254B811B7836793012276C
:20052000C8A24F920830230C90080EE0900808A23502054C30240C900815E090080FA2364D
:2005400002054C90081CE0900816A228924FF544C082C0831229C6D083D08278301227FB1B
:2005600002058390080879301227ED90080F79301227EDE54490080EF0900815F0A24F922D
:20058000359236200F15785E79301227C8E544F568C212304F02D21202068DE530C39402D8
:2005A0005068E546B40B030205ADB40E0778487A060205E7E544B40312E546B4020302050E
:2005C000C4B4030574040205CB7403C39568401F7848FB7A06BB00030205E77600081ADB61
:2005E000FABA0003020630795E1227CA020630F404FB7A06795E784DB70012760018091A71
:20060000DBF678481227CA02063002068A3017FAFBE568F544853435853334853233853140
:2006200032853031753000DBEC795E78481227C8784D79357A06C3201235204F2FE7965016
:2006400002240AF71918DAF5504379357A067B0ABB090302065CB70003020662EB7B09C3AC
:2006600097F719DAEBB24F02068DC13D020672204FF8E736D4FB540FF75303F0BB0004C38B
:20068000020684D31918DAEA5003753002301D09201E06201F03020A72200F1A304F17E5EE
:2006A00046120C825010C24F7400F530F531F532F533F534F535200A05302002D201126EAE
:2006C00006793090081D1227ED200503304A27304C03304D1312589030050DC20520060887
:2006E000D20012598C0206F6300A08742C126D450206F612597A301D09201E09201F1502B7
:2007000008FF301E0C856D65A2109222798002072F301F0C856E65A2119222798602072F39
:20072000300F28301A25856865A2129222795E78361227C8E546902870124ADFE56593F543
:2007400053C208302202D2080208F7E546B4040302076BB4050302076B3023030208F7303C
:2007600024030208F73025030208F730192B900C58E56923F5F093F549E5F00493F548754B
:200780004A0075530F755D3679481226B7A85D79561227C8C2080208F7302D030209A020B5
:2007A0000A09122A83122A0A0208FFC23A122B1A122343755D36E547B40B06123D2F0208CC
:2007C00042B40E02E1BBB408061239E1020842B4091912346990084BE4F01245FD120D5A34
:2007E000300E0221C6120C930207F1B40A0D1236A2300E0221C6C208020842B40C0B8545A0
:2008000065123B7AC208020842B40D0B854565123C29C2080208421223D2794012276AE5C6
:2008200047B4071EE5367004E5377003020840C39405400C94035008202A07D22A1222E830
:20084000C22A30165D204C7F126DD4500CE5366003B40F44783702085B7836E6C394025099
:2008600037B4FE6308E6601214705C08E6B409030208C7E545701C0208C7E54560491545B9
:2008800008E6600BB4012008E6B409030208A7E545601415450208A7E5479013859314B572
:2008A00045030208C7F545122A3A120D5A300E030201C6120C93300E030201C6D23A122BE8
:2008C0001A1223130207B3C23A122C5A300A22300817E547120C825010C2087400F536F531
:2008E00037F538F539F53AF53B302002D201126EAE1223430208FF302002D201126EAE30B0
:200900000A3079369008231227ED300613C206D200304C03204D03125AAE12598C020932ED
:20092000304A0F304C03204D06125AAE02093212597A7442304002746275F01E122A9D1294
:200940000D5A300E0302095F120C93300E0302095FE546B4090302095CB40AE912231302E6
:2009600001C6E547B40822E575B4061990446922E54DB4000FE54CB4000A746EC3954B4071
:2009800003754B6522904463229043A5124ADFE54575F006A42582F582E5F03583F5832283
:2009A000C208E575B40005782A0209B9B403030209B7B40616D208782D863E08863F08860A
:2009C000407940755D3612276A01F7B40130E546B40403020A46B40503020A467537187517
:2009E000381A753911753A0A753600753B0F126EAE12232605750575C246C24501FFB4047F
:200A000042E546B4003375371875381A753911753A0A753600753B0F126EAE122326057512
:200A200005753162740393F52D740493F52E740593F52FC246C24501FFB408024106B40255
:200A4000054106B4071875371875381A753911753A0A753600753B0FC246C24501F7753757
:200A600019753811753918753A1A753600753B0F01F7204F7D30102D753815753901C2081A
:200A800075370F753A0F753600753B0F75530F122149793790083B1227E802069975380E20
:200AA000753900417E7F80E544E56DF548120B34784879307A06C3E69740BD70040908DA3C
:200AC000F520111C7F86E544F56EF548120B34784879307A06C3E79640C370040908DAF535
:200AE000C208753712753813753905753A054186417830101C7F80E544F56DF548120B3453
:200B0000784879307A06C3E697400670E30908DAF53011897F86E544F56EF548120B3478D2
:200B20004879307A06C3E79640B670060908DAF541E0419DE546B40B03020B3FB40E08A90D
:200B40000778481227C822E530C39402503EE544B40316E546B40203020B64B40303020B9D
:200B600064B405057404020B6978487A06A9071227CA22F404FB7A06A907784DB7000E762D
:200B80000018091ADBF678481227CA222275480922204F37302604D3C22722E544B56F0F20
:200BA000E530C3940250F0788CE6C39402501F7F8CE56FF5487134784879307A06C3E6976B
:200BC00040D5700A0908DAF5020BD2202608C3C22722D227C322E544B56F0FE530C3940203
:200BE00050EC788CE6C3940250AD7F8CE56FF5487134784879307A06C3E69740D1709809ED
:200C000008DAF561D2204F14202614E530C39402400D788CE6C394024005D3222026ECE59E
:200C200044F56F788C79301227C8A24F9226788CE6C39402400E7602740008F608F608F63E
:200C400008F608F6C322E546B40403020C57B40503020C571222E4221F4004B003E8038488
:200C60000320025801F4012C00FA00960087007D007C006E005D004B003200100008000461
:200C80000002B40602D322B401028185B403028185C322C20E202903020D4F203B06202F16
:200CA00000020D0BC245C246124AF2304554900800E0F5F0A3E0C5F014F582B4FF0A15F012
:200CC000E5F0B4FF0375F00385F083C207E0B40D03020CDFB43B05D207020CDFB40A18A39C
:200CE000E583B40403758300E582C083900800F0A3D0E0F0020D02A3E583B404CE758300CA
:200D000081CB20050620060312598C900800E0F9A3E0FAA3E0F8B50108A3E0B50205020DC7
:200D20004FA3E0FB89828A83E0B40D03020D38B43B03020D38B40A05D23B020D4FE904F996
:200D4000B5000D70060ABA04027A00EAB503D52270D20ABA04CE7A00A124C20E20302730F0
:200D60002924E58720E21F20337074C41239DC908000E020E503021A0820E65EE574B403E7
:200D800059C24C0219AA74C11239DC908000E030E74B30E64B30E54B30E44B30E35130E2E3
:200DA0004830E14830E04B74C21239DC908000E030E74230E65130E55130E43F30E33F30EF
:200DC000E13F30E03F74C41239DC908000E030E72730E63930E53930E439C24B22020E3BB3
:200DE000020E54020E6D020EA7020EF9020F6D020F350210460211F70213F202150E0216E8
:200E00005D021744021B8602187D0219040219AA021A08021B05304B05D0E0D0E022D24B95
:200E200022D20AD204120EE7020E2DD237302905E58730E2031222E4026316D1167548007B
:200E4000121C32204D06754600020E8F754700123254C121D116754802121C32204D067541
:200E60004602020E8F754702123254C121D116754801304C1175480CC24C121C32204D1F5E
:200E800075460C020E8F121C32204D0B754601123122120EDAC12B754701123254C1217561
:200EA000470C123254C121D116754803304C1075480D121C32C24C204D1875460DC18F124B
:200EC0001C32204D05754603C18F754703123254C12175470D123254C121E544C394054003
:200EE00003754404022972E5479013859314F8C3954550028845022A14D116754806304C80
:200F000003754807121C32304C03020F58204D0B754606123122122972C12B754706123285
:200F200054C121C24C204D05754609C18F754709123254C121D11675480A121C32204D0C21
:200F400075460A123122D1DAC23AC12B75470AD20C123254D1E7C121C24C204D0E754607B3
:200F6000123122754400122972C12BC12DD116204C3A204D0CE546B40816B21B1231E3C115
:200F80002D300A0CE547B40807B22C1232DDC12DE546C0E07400F546122C5A7408F5461227
:200FA0002C5AD0E0F546754808020FAF754809121C32304C02E123204D0E754608123122F0
:200FC000754400122972C12B754708123254754500122A14C121E564B40B03020FFAB40CA1
:200FE00005756404C12DC39404400FC39405500C0564E564B4090375640CC12D0564E564C8
:20100000B40B027409020E2D3032030210C6E575B40303021021B40005792A021023B40686
:2010200010792D9008351227E3756B00D232020E2DB40406757503020E2DB407037575065A
:20104000020E2D02113B120E16202DBC203087204CF1201A71201E6E201F6B204D3AE546BF
:20106000B4050302108BB4040302108BB40308E544B4020D02108BB40202016FB40D02018B
:201080006F201707D217746002108F7440C21775F002122A9D020E2DE547B40308E545B472
:2010A000020D0210B9B40202019DB40D02019D201607D21674610210BD7441C21675F02BB9
:2010C000122A9D020E2DE56B045407F5F0E547B404030210E1B405030210E1B4060D021004
:2010E000EBE5F0B4051805F00210F9B40B030210F4B40E05E5F002112FE5F0203231B407A6
:20110000027400F56B126DD95009B4081F30151C02111630140BE56BB40511756B06021181
:201120002C301508E56BB40403756B06020E2DB406D121019040037408F022C24CB21D74A9
:2011400041301D02746175F02A122A9D121713C20AC204301D03020E2D20230920240620B1
:201160002503020E2DE546B40503020E2DB40403020E2D12193E020E2DD21EE544F56D8548
:201180006D6579800218DF798078481227C8A2109222856D65121304794878801227C8A28F
:2011A00022921085656D020E2D798678481227C8A2119222856E6512130479487886122737
:2011C000C8A222921185656E020E2D795E78481227C8A21292228568651213047948785E39
:2011E0001227C8A2229212856568020E2D217921870249F6021290120E16202DF72030F115
:20120000204CEA204D6220196D201ABF201EE0201F97E546B4050302121DB4040612125EBE
:2012200002123B2023062024033025031216C412125E20231E20241B2025180544AE44E5CC
:201240004690138593B506051544020E2D122972020E2B0545120EE7854544020E2BC217DC
:20126000744075F002022A9D121279300A050545120EE7020E2D0213787441C21675F02B76
:20128000022A9D0569E569B41503756900020E2D2032200544AE44E54690138593B506058F
:2012A0001544020E2D122972854445757500D237021BCAE575B40005782A0212C8B40303B8
:2012C0000212C6B4063B782D863E08863F0886407940755D3612276A793678481227C81255
:2012E0001304794878361227C8E575B40005792A0212FEB403030212FCB40605792D123727
:2013000070020E2DE56B702AE548600B202D1E202213D22202135A202D0320220375480128
:20132000C22202135AD22275480002135A7548006120B40618E56504F5F0E5469013859311
:20134000B5F005740002134AE5F00214FDF5F0744825F0F806B60A02760079487836122794
:20136000C8E546902870124ADFE56593F553C208302202D208026EAE1569E569B4FF0375E5
:201380006914020E2D05050303050307010105050505030505050202050307010105050528
:2013A000050205D21FE544F56E856E6579860218DF798078481227C8A2109222856D6512CB
:2013C00014C42198798678481227C8A2119222856E651214C421BA795E78481227C8A212EC
:2013E00092228568651214C421DC4183024A8F021475120E16202DF72030F1204CA5204D9D
:201400005C2019E6201AD0201EA7201FB7E546B40503021418B40405515E02143420230658
:201420002024033025031216C4515E2023192024162025131544AE44BEFF06754400020E8D
:201440002D122972020E2B1545AE45BEFF06754500020E2D122A14854544020E2B517930DD
:201460000A0A1545AE45BEFF06754500020E2D122A14020E2D20321B1544AE44BEFF0675D4
:201480004400020E2D122972854445757500D237021BCAE575B40005782A0214A8B4030309
:2014A0000214A6B406DC782D863E08863F0886407940755D3612276A793678481227C812F0
:2014C00014C441E2E56B7025E548600A202D17302214C222615A202D0330220675480102C4
:2014E00014E9D222615A754800C222615AB4060FE56514B4FF07E5469013859314615AF559
:20150000F0744825F0F816B6FF027609615A120E16D21CE546B4000675480402156AB4010B
:2015200002A118B40206754805021594B40302A126B4042B204C65754600744275F00F129C
:201540002A9D744275F012122A9D744275F00C122A9DC223C224C220C201C240020E2BB45D
:2015600005FA204C37754602A13A121C32754604C217744075F002122A9D204C0E1215AFF5
:20158000C218C225C220C201020E8FC24C1215C4D218A182121C32754605A170C24CB21837
:2015A0002018061215AF020E2D1215C4020E2DD223C224746275F012122A9D744275F00F87
:2015C000122A9D22C223D224744275F012122A9D746275F00F122A9D22E575B403030215BF
:2015E000ECB40005782A0215EEB4060A782D900835122804C232020E2D2032DDE575B402BB
:201600000715751575020E2DB40502C101B40802C101B40102C103B40402C103B40702C1FE
:2016200003B40306757500020E2DB406FA757503120962740393F52D740493F52E7405933F
:20164000F52F020E2DC232C22DC202744275F01D122AAC121713C20AC204020E2D120E1621
:20166000202D96204C4D204D3920233320243020252D20322A201A27201E24201F212019F4
:201680001EE546B4040302169FB4050302169FB4090302169FD24D746075F02B122A9D0247
:2016A0000E2D1216A8020E2DC24D744075F02B122A9D22C24C201A34201E3C201F491216EE
:2016C000C4020E2D121713D1A8C20AC204C223C224C22575F0147442122A9D75F0127442DB
:2016E000122A9D75F00F7442122A9D22900835785E1227FB0218CC90083578801227FBC274
:201700001E121C130218CF90083578861227FBC21FE101122A83121EA722C24C201D092093
:201720002306202403302503020E2DD219300A06C20AC204F113746175F021122AAC020E90
:201740002D0217DF120E16202DF4204CCD204DEEE546B401EC75480B121C3275460B12315C
:2017600022C21912297220230620240330256D755D3090080878301227FBA235924F793E80
:20178000123770793E9008291227E3A24F9241123DD479309008081227EDA24F9235900856
:2017A0000F78301227FBA236924F793E123770793E90082C1227E3A24F9242123DD47930ED
:2017C00090080F1227EDA24F9236124148121EA785464712326D854445122A3A020E2BB4DB
:2017E000000B75480E121C3275460EE15EB40B7B754801121C3275460120230620240330D7
:201800002566121EA785464712326D854445122A3AA241924F9235900829783E1228047966
:2018200040755D3012276A79309008081227EDA242924F923690082C783E12280479401244
:20184000276A793090080F1227EDA2439228924F90082F783E122804794012276A793090B1
:2018600008161227ED12409E020E8FB40E0C754800121C327546000217F9020E2D120E166A
:20188000202DF7204D40204C4C200F3DE55EC394024027120E2D75300175311175320F755B
:2018A000330A75340B75350BD20BC052755200122026D052122326C20B22D20FC21A746275
:2018C00075F003122A9D020E2D301A03121C11C20F744201C0300FEED21A856865795E90E4
:2018E00008351227EDC24C756B00300A07C20AC204121EA785464712326DE565F545122A6A
:201900003A020E2D120E16202DF7E546B40405C24C020E2DB40502210F204C39202017D2EA
:2019200020746275F00C122A9D744275F01E122A9DC240020E2DC220C20174422123201D3A
:201940000F121EA785464712326D854445122A3AD20AD20422C24C3020091222E41223963C
:20196000020E2D12409E313E20240620232B021988C224D22375F00F7442122A9D75F0121B
:201980007462122A9D020E2DC225D22475F0147442122A9D75F00F2180C223D22575F0120E
:2019A0007442122A9D75F0142180120E16204C05D21C020E2DC24C126DD95003B408F353F1
:2019C00020FC30150612701A0219DA30140912702112702E0219DA127013122E75021B3ED5
:2019E000E5647009302F06756402020E2DC39404500D0564E564B4040C75640B020E2DB4A5
:201A00000703756400020E2D120E16204C322030CF20291E020E2D5387FBC233D229746274
:201A200075F021122A9D020E2D203306438704021A375387FBC229C2331262FD7442412053
:201A4000C24C302003020E2DD230D20E122FF87564001249044016A3E0C3940640057405A1
:201A6000021A64E0F570A3E0F571021A737570057571001248FEA3E0F572A3E0F573020E1C
:201A80002D90A60012419DE546124191A3E547124191A37892124181E522124191A3E569D4
:201AA000124191A378A512417C785E124186E568124191A3E574124191A37400300A02742C
:201AC00001300F02D2E112419112409E122A83300A06123254120EE7020E2B90A600744377
:201AE000124191A3744C124191A37452124191122263D2D50200742032030241C0C232026C
:201B00000E2D02491F120E162030F7202DE9201A5A204C2A201E5A201F6230191012171375
:201B2000C219744175F021122AAC020E2DD24C204D06126E06020E2D126EAE020E2DC24C9D
:201B4000204D14740FF530F531F532F533F534F535126E06020E2D740FF536F537F538F5D5
:201B600039F53AF53B126EAE020E2D121C11020E2DC21E1245C2121C13020E2DC21F124537
:201B8000F06176021645120E16202DF7E546B40703020E2DC3940B50E0200FDD2020DA3099
:201BA0000A07C20AC204121EA712701812127912125ED22DD202746275F01D122AAC854614
:201BC00047123254854445757500E546B40A0B7575037400F579F57AF57B121BE0020E214E
:201BE000120962740093F52A740193F52B740293F52C740393F52D740493F52E740593F595
:201C00002F227458124191A3A3A3A3745812419122C21A85464712171322E549901FB21278
:201C20004ADF740093B54A02C322B4FF02D322A3812220302CD231304D39201924300A0BC7
:201C4000202908E547B54803021C6185484AC046D049E549B54A03021C90202D33911A50F9
:201C60002FC2312029061222E4122396D0E0D0E0020E2D202907E546B548028161300A10CD
:201C800020230D20240A20250785474AC0488150E546B40403021CCBB40503021CCBE548CA
:201CA000B40B03021CCBB40E03021CCBB40108E546B40B0E021CCBB40008E546B40E03027F
:201CC0001CCB20239C202499202596301D2DC21D744175F02A122A9D121713C20AC2042022
:201CE0002309202406202503021CFBE546B40503021CFBB40403021CFB313EE548126DDB43
:201D00004000304D03021EA7302D2A754400121EA7854847123254854445120EE77575007A
:201D2000E548B40A0B7575037400F579F57AF57B71E0021D54300F0C9111C20F75F00374A1
:201D400042122A9D301E05C21E021D51301F05C21F12171312293FE546B40011744275F0CF
:201D600000122A9D744075F018122A9D22B4010A744175F001122A9DA164B40211744275B4
:201D8000F000122A9D744075F019122A9D22B4030A744175F001122A9DA185B40422C220B6
:201DA000C201C223C224744275F012122A9D744275F00F122A9D744275F00C122A9DA15C8F
:201DC000B40522C220C201C223C224744275F012122A9D744275F00F122A9D744275F00C88
:201DE000122A9DA17DB40609744175F017122A9D22B40723E547B40703021E051211347445
:201E000000904001F0744275F015122A9D744275F016122A9DA164B4080F75F018301B0353
:201E200075F0197442122A9D22B40919744075F017122A9D744075F015122A9D744075F074
:201E400016122A9D22B40A19744175F018122A9D744175F016122A9D744175F015122A9D7E
:201E600022B40B1B744175F001122A9D744275F017122A9DC219744175F021122AAC22B493
:201E80000C0A744175F001122A9DA15CB40D0A744175F001122A9DA17DB40E0A744275F077
:201EA00000122A9DC16C22122961E547B40011744275F02A122A9D744075F01F122AAC220D
:201EC000B4010A744275F02B122A9DC1B7B40211744275F02A122A9D744075F020122AACA6
:201EE00022B4030A744275F02B122A9DC1D8B40402C1AFB40502C1D0B40609744175F021D3
:201F0000122AAC22B40723E546B40703021F181211347400904001F0744275F02D122A9D0A
:201F2000744275F02E122A9DC1B7B4080F75F02D302C0375F02E7442122A9D22B4091974BD
:201F40004075F021122AAC744075F02E122A9D744075F02D122A9D22B40A19744175F01F62
:201F6000122AAC744175F01D122AAC744175F01E122AAC22B40C0A744275F02B122A9DC16E
:201F8000AFB40D0A744275F02B122A9DC1D0B40B13744275F02B122A9D744275F021122AAE
:201FA000ACC21922B40E0A744275F02A122A9DE199221FD01FD81FE11FE91FF21FF21FF3D0
:201FC0001FF51FF71FFF20002007200F2019202101030C0D02080BFF0300020C0D0A080E5A
:201FE000FF0300010C0D0B0EFF0002010C0D0A0B0EFFFF08FF08FF0600010C0A0B0EFFFF2E
:2020000001030C0D080BFF0001030C080A0EFF000103020D0A080B0EFF000102030A0B0EFC
:20202000FF0001080BFF30090122200B737442304F02242075F001122A9D304C0C204D6085
:202040007414F532F533022097203054126DD95010B40A10E530B40F0302206470310220A2
:2020600064301405E531022073301505E532022073E530F5F090084BE0B40024E5F0C39451
:2020800002401DB414030220A0B40D030220A075320075330E740F753000F531F534F535D0
:2020A00090084BE4F0E552B4050574620220B1744275F002122A9D7830AB5212334E7C36EB
:2020C0007830790090E000E6B9001675F002B4010C7461F0E5F0F01222F502211B744101EB
:2020E000D3B9080575F01A01CE244083F5F0E9F07435C3987006202515022113B55203023E
:20210000210E743BC3987003022113B553057401022115740045F0F01222F509B902010993
:20212000B907010908E8B504012201C7EE067C3E96BAFA26FEBEF85058F0C8000852F4F6CB
:2021400008D610D85ECE5AEADA30090122056C7440300822203209201A06201E03301F0E5B
:20216000122249700FE56B700B7440022176201D03300A02746075F01A122A9D304C1230E5
:202180004D0F7414753600F537F538F539F53AF53BE553B4051B203209201A06201E0330B2
:2021A0001F0AE56BB40605122249700574620221B3744275F01A122A9D203233201A30202C
:2021C0001E2D201F2AE536C394024019B40D060221E50221E575380075390E740FF536F59B
:2021E00037F53AF53B7836AB5312334E022241122249704DE56BB4060675530F022241B46B
:202200000031E547B40403022216B40503022216B4060902221C75370F022241126DD440C0
:202220000C30150675380F0222412014E9753600022241F5F0E547B40600E5F02436F87691
:202240000F7C3C7836790801C4126DD9401020130D20140574080222607404022260740131
:20226000556C2290C00012227090E00012227022790078401222F5E8F0E9F008B844F50944
:20228000B933EF2290C00012229190E00012229122790078601222F5E8F0E9F008B864F591
:2022A00009B933EF22C29790E000E090C000E012239674FF90C000F0F090E000F0F012234C
:2022C000961222C4D297000000C297122396748E90C000F07402F0748E90E000F07402F073
:2022E00012239622204E01229040037409F01223967408F022C0067E50DEFED00622C0059A
:202300007D0402231EC0057D01022381C0057D0A022381C0057D05022381C0057D1E12239C
:2023200096DDFBD00522C0057D14611EC005203AE4022370C005203ADC02237AC0057D22CD
:20234000022381C005E564B40003022370B4021D300A1DE546B40008E544B4001302237ADD
:20236000E547B4000BE545B4000602237AB4060A7D0E20130C7D070223817D182013027DF0
:202380000C122396C005120D5AD005200E05DDF1D005220201C6C0077F0051F5DFFCD00754
:2023A00022C2960223AB20B2FDD296D2B574401239DC78407A037908C330B501D333D2B44F
:2023C0000000C2B40000D9F0F618DAEA74C01239DC2271A6203A1220150FC040C03FC03EAB
:2023E000120D5A300E060201C602246612702E71A6127026D0E0253EF53ED0E0353FF53FBE
:20240000D0E0354020141BC0D0C0E0E564B4060EE565B405030225BBB406030225BBD0E0D0
:20242000D0D013F540E53F13F53FE53E13F53E201434C040C03FC03E120D5A300E030201BE
:20244000C612702E71A6127026D0E0253EF53ED0E0353FF53FD0E0354013F540E53F13F510
:202460003FE53E13F53E302D1CE575B40005787902247EB4030302247CB406097876793ECF
:202480007A031227CAE564B40805C22E0224FDC22E302D0BE575B4040302249FB4075E1242
:2024A0004357E0B45357A3E0F57CA3E0F57DA3E0F57EA3E0B45346D22EA3E0F541A3E0F564
:2024C00042A3E0F543783E79417A3E124298924FE564B40408C0647564000224E5B405251B
:2024E000C064756402124357E0B45319A3E0F57CA3E0F57DA3E0F57ED064022505E54020AD
:20250000E73B02250B304F38634080633EFF633FFF63407FD24FD208302D0BE575B40403B2
:20252000022526B407161242F6E0B4530FA3E0F57CA3E0F57DA3E0F57E0225442253407FBF
:20254000C24FC208302EF5783E797C1226627A01784B1242DB794B783E1227DF302E5BE56B
:2025600064B4030302256EB40150E565704CE540C39403503375419C754212754300783E12
:2025800079417A3E1242987541D4754227754383783E79411226627A01784B1242DB794BFF
:2025A000783E1227DF0225BA7010E53FC3940540C47007E53EC3949740BB22D0E0D0D075FE
:2025C0004B005003754B01F54A853F49853E487B06BB0303127026C003C04BC04AC049C0BA
:2025E00048120D5AD048D049D04AD04BD003300E030201C671A6E548253EF548E549353F51
:20260000F549E54A3540F54AE54B3400F54BDBC17B03C3E54B13F54BE54A13F54AE54913D3
:20262000F549E54813F548DBE985483E85493F854A408166C29602263BD29674801239DCCF
:2026400078437A037908E6334005C2B5022651D2B5D2B4C2B4D9F018DAEA74C01239DCD21E
:20266000B522C2AFC002C003C0047400F548F549F54AF54BF54CF54DF54E7A487B037C03D6
:20268000C000C00286F0E7A4C001A90227F7E5F00937F7500B09B94E030226A07400C19125
:2026A0000A08D001DCDE09D002D0000ADBD0D004D003D002D2AF227806E7FA09E7FB09E7C7
:2026C000FC9027557900C082C083C3740093C002CA9AFDD002A3740093C003CB9BFED00391
:2026E000A3740093C004CC9CFFD004400DD083D082EDFAEEFBEFFC09C1C6A3D0E0D0E0747D
:202700005BC398C9F7D8BD8A5B22C001C002C0E0C0F0E56524FE5034750156E7B4022D75D9
:20272000F064A4FA750157E775F00AA42ACA750158E72AC3940075F06484750156F7E5F0D1
:2027400075F00A84750157F709E5F0F7D0F0D0E0D002D0012240420FA08601102700E803DE
:20276000006400000A00000100007400F548F549F54A7DA07E257F267A03E7780833C0E0A0
:20278000500FED2548F548EE3549F549EF354AF54AC3EF13FFEE13FEED13FDD0E0D8DE19AD
:2027A000DAD87948D1B7785B7A07794E754E05754D00754C00754B00754A007549007548BE
:2027C0000012281AA85D79557A06E7F60908DAFA227A06E7B40F027400F60908DAF5227A5C
:2027E00003E1CA7A030227EF7A020227EF7A06E7F009A3DAFA227A0C0227FD7A06E0F608FF
:20280000A3DAFA227A030227FD7A03C001D082E0C000D082F00809DAF222C3E637F5F0C383
:20282000940A4005F6D302282DE5F0F6C31918DAEA227400F548F549F54A7D407E4B7F4C71
:202840007A03E7780833C0E0500FED2548F548EE3549F549EF354AF54AC3EF13FFEE13FEB1
:20286000ED13FDD0E0D8DE19DAD879481226B72228E628E628F528F528E628F528FE293157
:20288000293329132922293528E628F5293528EB28EB28F828F828EB28F8290529322934EF
:2028A00029182927293A28EB28F8293A010101010101000100000100010128F028F028FB31
:2028C00028FB28F028FB290C29322934291D292C293A28F028FB293A01010101010100010A
:2028E00000000100010103050403021CFFFFFFFF1EFFFFFFFF0403041C1CFF1E1EFF03050D
:202900000403050403FF555555565656FF6D6D6D6E6E6E030201030216161615152E2E2E13
:202920002D2D0201030204FFFF5C5C5BFFFF5E5E5D05FF01FF0202020202FFFFFFFFFFE51B
:202940005190E000B4010390C000E550B4FF03022960F5F053F03F232354034440122AA0D4
:2029600022E56790E000B4010390C000E566B4FFE122E546B4040302297DB40502D21CD267
:202980000EE5461230DAC3139227789228F8E620270854F0F6E5440229A0540FF6E544C480
:2029A00046F6302D09854445122A3A122FF81229C6740FF530F531F532F533F534F535C285
:2029C0004FC052026E0E313F90288EE546124ADFE54493F5F09028ACE54693F55190E00083
:2029E000B4010390C000E5F0F550B4FF030229FC53F03F232354034460122AA0E546902856
:202A000070124ADFE54493F55222C216744175F02B022A9DD20E202D21300A1EE547C31358
:202A20009227789A28F8E620270854F0F6E545022A38540FF6E545C446F631619028BAE542
:202A400047124ADFE54593F5F09028D8E54793F56790E000B4010390C000E5F0F566B4FF4C
:202A600003022A7053F03F232354034460122AA0E547902870124ADFE54593F553122A8CBC
:202A8000026EAE75530F122A8C022149740FF536F537F538F539F53AF53BC2082290E0001D
:202AA00030090122F0E5F0F01222F52290C00041A074007A05C0E093F6D0E00408DAF622BF
:202AC000902F29783EE56575F005A451B3902EC5022AE3902F51783EE56575F005A451B348
:202AE000902ECF784851B1534C3C022D6D902F10783EE56575F005A451B3902ECA022B106A
:202B0000902F42783EE56575F005A451B3902ED4784851B1534CF3022D6DE547B40C012211
:202B2000B40D0122B40A0E300C0BC046C0441235F2D044D046C20CE546902EF2124ADFE568
:202B40004475F005A4783E51B3E547902EA7124ADF784851B1E547B40A2FE546B40B0302D3
:202B60002B65B40112534CFC022C51B40806754BFF754CFF022C51B40CF1902F29E54475ED
:202B8000F005A4783E51B36165E546B40E03022B94B40016E547B40B03022B9FB4010653D9
:202BA0004CF3022C51B403FA619FB402026194B40B03022BB8B40116E547B40E03022BC3A6
:202BC000B40006534C3C022C51B402D661C3B4030261B8B40C3CE547B40E03022BE1B400B0
:202BE0000F902F29E54575F005A4783E51B361B8B4020261E1B40B03022BFEB4010F902F69
:202C000010E54575F005A4783E51B361B8B4034161FEB40D3CE547B40E03022C20B4000F43
:202C2000902F51E54575F005A4783E51B361B8B402028120B40B03022C3DB4010F902F422E
:202C4000E54575F005A4783E51B361B8B40302813D854764854565022D6DC237200A1AE5D5
:202C600046B40A06203A031235F274FFF548F549F54AF54BF54C022D67E546B40C0122B4AE
:202C80000D0122E547902EF2124ADFE54575F005A4783E51B3E546902EA7124ADF7848511F
:202CA000B1E546B40A2FE547B40B03022CB1B40112534CFC022D67B40806754BFF754CFF45
:202CC000022D67B40CF1902F29E54575F005A4783E51B381B1E546B40E03022CE0B4003AB5
:202CE000E547B40B03022CEBB40106534C3C022D67B4030281EBB40D0F902F51E54575F00D
:202D000005A4783E51B381EBB40C5C902F29E54575F005A4783E51B381EBB4020281E0B4B5
:202D20000B03022D28B40116E547B40E03022D33B40006534CF3022D67B40207A133B403E6
:202D400026A128B40C0F902F10E54575F005A4783E51B3A133B40D0F902F42E54575F005BB
:202D6000A4783E51B3A133854664854465C041C042C043122E75D043D042D041E564902ECC
:202D8000F2124ADFE56575F005A4C0E0C082C083935548F5F0E548F4553E45F0904000F0CB
:202DA000D083D082D0E004C0E0C082C083935549F5F0E549F4553F45F0902000F0D083D0D1
:202DC00082D0E004C0E0C082C08393554AF5F0E54AF4554045F0902001F0F8D083D082D086
:202DE000E004C0E0C082C083931270365003FA54CFF5F0E564B40A09E52754B053F04F4236
:202E0000F0E5F0554BF5F0E54BF4554145F0902002F0F9D083D082D0E00493F5F0E564B410
:202E20000A09E527540353F0FC42F0E5F0554CF5F0E54CF4554245F0906000F01222FE54F9
:202E400003F01270365014EA554BF5F0E54BF4554145F0902002F0F912233CE564B4020FEB
:202E6000E854F4902001F0E954BF902002F022B40302C16022E564B40806754322022E832D
:202E8000754320203A033015097542807541C3022EA4301409754282754149022EA475421B
:202EA000877541D00226342EC52ECA2ECF2ED42EC52ECF2ED92EDE2EE32EE82EED2ECA2E54
:202EC000C52ECF2EC5FFDFFF43FCFFD0FFF3FFFFD0FF43FFFFD0FFF3FFFFDFFFC3FCFFD026
:202EE000FF43FC0050EB4300005FEB43000050F403002F102F292F422F512F602F792F88CC
:202F00002FAB2FB02FB52FCE2F292F292F512F10C450F40164A4C0F40164ABC6F001A8AACA
:202F2000C4F001A8A9C2F00168CC50E49164ACC0E4A164ACC0E4A169ACC0E4A16AACC0E421
:202F4000216AC450FC4168C450FD0168C450F70168CC50ECD1A4CC50ED91A4CC50E791A44C
:202F60005410F401A434C0F401A43BC6F001A83AC4F001A839C2F001A85450FC4168545015
:202F8000FD01685450F70168C450B48194A4C0B48194A5C2B48194A6C4B48194A7C6B481B8
:202FA00094A614948194A716D40194A4C03481940040E300A40047E241000045E2410000AE
:202FC00045E241000043E241000043E241000040E491680040E491680040E491680040E442
:202FE00091680040E49168E546B40B03022FF8B40E03022FF8B4081F744275F01A51AC7535
:203000005400C20D123070744175F001122AAC744075F002022AAC746275F01A122AACD2D6
:203020000D204F04C20DC20D7830126DD9500DB4040302303CB4050302303C08E6B40F020F
:20304000740075F00AA408B60F0302304E2623F5F008E6B40F027400C394057401500274AD
:203060000025F0F5F0C39428E5F040027429F554200D13746175F001122AAC744075F0005E
:20308000122AAC023096744175F001122AAC746075F000122AACE554C3954F5019E54F15CA
:2030A0004F9030F893F5F053F03F232354034440122AAC0230C170041230C6221230C60568
:2030C0004F1222F50196E54F9030F893F5F053F03F232354034460022AACB40B05740102A7
:2030E00030F7B40E0574000230F7B4040574000230F7B405027402220242828444040545BC
:20310000858747070848888A4A0A0B4B8B8D4D0D0E4E8E905010115191935313145494977E
:203120005798302D0C85464775440012325402314CE54611DAC3139227789228F8E6202759
:2031400003023145C4540FF54412455FE546B40011746275F000122A9D746075F018122A4D
:203160009D22B4010A746175F001122A9D2159B40220746275F000122A9D746075F01912F5
:203180002A9DE544B4020AC217744075F002122A9D22B4030A746175F001122A9D217AB46C
:2031A000040A746275F00C122A9D2151B4050A746275F00C122A9D2172B40609746175F0FC
:2031C00017122A9D22B40718746275F015122A9D746275F016122A9D7480904001F0215988
:2031E000B4081D75F018301B0375F0197462122A9D75F018201B0375F0197442122A9D2214
:20320000B40909746075F017122A9D22B40A09746175F018122A9D22B40B11746175F0017E
:20322000122A9D746275F017122A9D22B40C0A746175F001122A9D2151B40D0A746175F013
:2032400001122A9D2172B40E0A746275F000122A9D412322202D16E547C3139227789A2843
:20326000F8E6202703023269C4540FF545E547B40011746275F02A122A9D746075F01F128F
:203280002AAC22B4010A746275F02B122A9D417AB40219746275F02A122A9D746075F02017
:2032A000122AACE545B40203122A0A22B4030A746275F02B122A9D419BB404024172B405D9
:2032C000024193B40609746175F021122AAC22B407087480904001F0417AB4081D75F02D52
:2032E000302C0375F02E7462122A9D75F02D202C0375F02E7442122A9D22B40909746075F9
:20330000F021122AAC22B40A09746175F01F122AAC22B40B11746275F02B122A9D7462750E
:20332000F021122AAC22B40C0A746275F02B122A9D4172B40D0A746275F02B122A9D4193D8
:20334000B40E0A746275F02A122A9D611D22203008A9007405C39B700122FAE67005760F7E
:2033600008DAF8227A00E7C001544070181919E7C333F709E733F709E733F70AD001BA182C
:20338000E5754DFF22D0E018181919754B00754C00754D007E18C000C001E6C397FB0809AD
:2033A000E697FC0809E697FDB35009A60518A60418A603D3E54B33F54BE54C33F54CE54D82
:2033C00033F54DD001D000E6C333F608E633F608E633F61818DEBF22E54DF54AE54CF54908
:2033E000E54BF54874178A4EC39AF8B80003023404E54AC313F54AE54913F549E54813F5BB
:20340000481861EB79481226B77406C3955CFA7456255CF9A85DBA000302341F1227CAAA20
:203420005C0ABA07011A7855BA000302343AB60004081A8128A85D760222AF4E0FBF00035E
:20344000023456E54BC333F54BE54C33F54CE54D33F54D1F813D794D122832E55D2406AA09
:203460005CC39A7955F80227CA740A904003F0D2B330B3030235A612702EC22B74C712392E
:20348000DC7F017EFF7DFFE565B404067F087EFF7DFF902FB6E56575F005A493F5F090205A
:2034A00000F054BFF0441054FEF04401754800754900754A00754B00754C00754D00757ECE
:2034C00000758A00758C00F0758921758850D28CD2A9C2AAE565D2AA90800030B31BDDFB9F
:2034E000E0B4FF31DEF5DFF3C2AAC2A9C28CE5F04440F0D3C227023520C28CE58AF54BE500
:203500008CF54CE57EF54DE5F04440902000F0C3C227023520E5F04440902000F0C3D22788
:20352000C2A9C2AAC28C854B3E854C3F854D4030271DC065120D5AD065200E1074C712392B
:20354000DC908000E0B4FFFCC24B81770201C6202BF8127026400602355D0235A6E565B482
:203560000200853E4B853F4C85404D794B1226B7E565B4021BC05AD05BC059D05AC058D0DB
:2035800059C057D058C056D057C055D056755500E565B4040579550235B8B40311E555701B
:2035A0000579560235B8A85D760208760222E55570F4E55670F07957A85D7600087A05120C
:2035C00027CA2275460A1223131223131223131223131223A67543E6754266754166794187
:2035E000783E7A41024298754388754200754100A1DEE52754B3B49014C04475460175446E
:2036000000122C5AD044B1C35043023662B4A00302364DB4A103023638B4A203023674B400
:203620002216C044754601754404122C5AD044B1C3B1E7505D023674C04475460175440249
:20364000122C5AD044B1C3502BB1E7504EC044754601754401122C5AD044B1C350DAB1E73D
:20366000500953274C4327900236A153274C4327A00236A1C044754601754403122C5AD0CB
:2036800044B1C3500DB1E740AF53274C4327A20236A153274C4327220236A153274C432788
:2036A000A12212702EC22B1237A51270265027C065120D5AD065200E1074C71239DC90801A
:2036C00000E0B4FFFCC24BC1A2740FA85D7600790508F6D9FC22202BC9200A6B78307A06A9
:2036E000E6706408DAFAE52754B3B490193017577544007565001229817400A85D7A06F6E8
:2037000008DAFC02375DB4A00953274C432790023733B4A10953274C4327A0023733B4A2BC
:203720000953274C4327A1023733B422DC53274C4327A2E52754B04401902002F0E5275468
:2037400003906000F0C1A2E565B4021FE55D2404F87905E608F61818D9F9087600302D0A59
:20376000E575B40305797612377022B404EFE14CA85D90453B7B067700097700097700196F
:20378000198602BA000302379E74009327F77401930937F77402930937F71919DAEB08A3AE
:2037A000A3A3DBDD2274E71239DC9020037404F020B31820B30920B30920B3090237F13073
:2037C000B32730B32430B3210237F130B30C30B30C30B30C30B30C0237F120B30C20B30939
:2037E00020B30620B3030237F1A85D7606C30239D6C2219080007CFF20B31820B309E0B4D2
:20380000FF42DCF702382830B330E0B4FF36DCF702382830B309E0B4FF2ADCF70238282023
:20382000B318E0B4FF1EDCF7E565C394034002D2219020037405F0023847E565C3940350CF
:20384000060237E90239D579017801D2279080007A047BFF7CFF8A4B30B30DE0B4FF19DB75
:20386000F7DCF5DAF302389220B310E0B4FF09DBF7DCF5DAF30238920239D5884889497DFD
:20388000FF7EFFAF4B30B31BE0B4FFECDDF7DEF5DFF3A85D79067400F608D9FCC30239D61D
:2038A00020B30CE0B4FFD1DDF7DEF5DFF30192D8D7A848D9D3BD00050EBE01010F6305FF68
:2038C0006306FFE54BC39FFF302743C227754A00BF003BEE54E0703678047900754A027ABB
:2038E000107B05EA5E701EEA03FAE823F8054ADBF27B08EA5D700EEA03FAC3E833F8E9333B
:20390000F9054ADBEEB9000109754B01017BE5657006755C0202391B755C018F048E03783F
:2039200002C3ED33FDEE33FEEF33FFD8F4ED2BFDEE3CFE74003FFFED2CFDEE3400FEEF3451
:2039400000FF8549F0E548600215F02DFDEE35F0FEEF3400FFE549232DF541EE3400F542AC
:20396000EF3400F543C04A753E7A753F7F75407078407943123364C002794B78411227DFE9
:20398000302D05E575B4042490A528124376E0B4531AA3E0F57CA3E0F57DA3E0F57E7841CE
:2039A000797C1226627A01784B1242DBD002D0E02AC39404FA1233D8302116E55D2403F825
:2039C0007904E60808F6181818D9F7087600087600C30239D6D374C01239DC22904002F084
:2039E000221223D27541A9754282754311783E79417A3E304F151242985013C24FC20863F4
:203A00003EFF633FFF6340FF023A0E1242AB78407A011242BE7541F075421675434878406D
:203A200079431233647A01784B1242DB904492E54D75F00584FBC3941C40027B1BEB75F098
:203A400005A4FCEB75F006A42582F582E5F03583F5837A06783BEA93F618DAFA784B7936A0
:203A60007A41124298502C6341FF6342FF6343FF78417939122662784B7A011242DB740051
:203A8000C3954BF54B7400954CF54CEC954DF54D023AA678417939122662784B7A01124224
:203AA000DBEC254DF54D7A07755C021233D8302D08E575B40603023B101245FDE55DB430D7
:203AC00006301B1D023ACA302C177541CC7542CC754301783E7941122662794A783E122785
:203AE000DF794012276AE55DB43006301B22023AF4302C1CE55D2404F8794B7548007549A9
:203B000000754A03754B027A04C3204F0612281A023B42E6975002240AF61918DAF5502233
:203B2000E55D2405F97A057B0ABB0903023B35B70003023B3BEB7B09C397F719DAEBB24F13
:203B4000B208302D18E575B40303023B58B400057979023B5AB406057976123B5E22123787
:203B600070204F070909E74480F722E764FFF709E764FFF709E7647FF722756400122AC03D
:203B800012232C1223D2793E78551227DF7543667542667541667941783E7A411242984073
:203BA00030E55DB43014301725E544B40403023BCE0544122981D23A617A301611E545B41F
:203BC0000403023BCE0545122A3AD23A617A023C24756401122AED1223341223D275436639
:203BE0007542667541667941783E7A411242984003023C2478557955122662794B7841120C
:203C000027DF783E793E122662E54B2541F541E54C3542F542E54D3543F543023C8779408C
:203C200012276A22A85D760222756402122AD312232C1223D2793E78551227DF754366759F
:203C400042667541667941783E7A41124298402FE55DB43014301725E544B40203023C7DD7
:203C60000544122981D23A8129301611E545B40203023C7D0545122A3AD23A812981247504
:203C80006403122B0061D7E5417013E542700FE543700B753E00753F00754000811E123E4B
:203CA000E2903CE8123F20EAC313FA5015C002903D187933123D1B7A03794B78331227CA32
:203CC000D002BA0003023CDAE535C313F535E53413F534E53313F533DAEEE533F53EE5344F
:203CE000F53FE535F540811E00008000002000001000000A000007004005002004005A031B
:203D000000CB02C05F02E00C0244CB01469601BE6A01784601DC2701F304B5740093F54105
:203D2000740193F542740293F5437841022662C23A1223D2793E90082F1227E3A24F92435D
:203D4000E55DB43006301763023D4E30165D7543667542667541667941783E7A41124298EF
:203D6000503D7543007542F9754109783E79417A411242985035E56560311565E55DB43078
:203D80000E856544122981D23A122C5A023D9A856545122A3AD23A122B1A122313A131E5A7
:203DA00065B40403023DAB0565A17C303A0AC23A122E75122343A131754366754266754112
:203DC000667941783E7A411242984008A85D760208760222854043853F42853E41E5417057
:203DE0001CE5427018E5437014A85D760108761108760F08760A08760B08760B22123EE2C6
:203E0000903EAF123F207530FF0A903EDF7933C37B03740093C797F7A309DBF6E5309400EA
:203E2000F530DAE6E5652530F530E53375F014A4F53285F033E53475F014A42533F53374AB
:203E40000035F0F534E53575F014A42534F534740035F0F535E53075F014A42535F5359052
:203E6000403AE56923232582F58274003583F5837B04784A7932C374009337F6A30809DB00
:203E8000F6A95DB93005C24F023E8DC2085480B48014B93005D24F023E9CD208784B7B036E
:203EA000E6F4F608DBFA7A07755C021233D822EC2D6FF696374E0F257BCB1B623C16A787B2
:203EC00012FDE10FBDE50D6F5A0C311E0B721B0AD34309608D08FEF007766907DEF2064D5C
:203EE000104D7A007400F530F531F532F533F534F535E5435480700E78417903C3E633F609
:203F000008D9FA0AC1F2C374009541F53EF55874009542F53FF55974009543F540F55A22BD
:203F20007C10C002C082C0837958B11B7B0679487830C3E697F60908DBF9783E795812264D
:203F400062785579481227C8D083D082A3A3A3DCD3D00222902F79023F62E564B404F590DE
:203F60002F60E56575F005A42582F58274003583F58320185A740093C082C083904000F0BA
:203F8000D083D082740293C082C083902001F0D083D082740393C082C083902002F0122342
:203FA00005D083D082740093547FC082C083904000F0D083D0827402934488C082C08390A9
:203FC0002001F0D083D08274039354FE02402A740093C082C083904000F0D083D0827402FC
:203FE00093C082C083902001F0D083D082740393C082C0839020024402F0122305D083D08F
:2040000082740093547FC082C083904000F0D083D0827402934488C082C083902001F0D08F
:2040200083D082740393440254FEC082C083902002F0D083D08212230C22F316F8F6C84BD0
:2040400035FF00000000A1237500F216F800CBEE370204A30203D0913A0509460506D53452
:204060003D087658B2080DE907092AD71009E308960903AF500AD9D73F0B04A3020DED73AD
:20408000F511F216F814F6B9FA17FB5CFD1AE545B56F0BE530C394024013788C76027400CE
:2040A000F570F571F572F573C045D06F2290275878307B068602BA00030240F8740093F54D
:2040C000F0E571304F06C395F00240CE25F0F571740193F5F0E572304F0595F00240E1359D
:2040E000F0F572740293F5F0E573304F0595F00240F435F0F573DAC408A3A3A3DBB60570C2
:20410000E570B53D427873C226E65480B4800BB2266373FF6372FF6371FF79417700097745
:204120000009E53D2323F71242D67A05784D7B03C3E613F618DBFADAF3794B1226B779563D
:20414000788C1227C8019E22A208924F793678301227D1793E123770123DD47930900816C3
:204160001227EDA24F9228019E7A5A0241757A100241757A06E0F6A308DAFA227A5A0241F3
:20418000887A100241887A06E6124191A308DAF822C0F0F5F0F0E0B5F0FCD0F022E0B4538A
:2041A000030241A874533191A3B445030241B374453191A3B454030241BE74543191A3227A
:2041C000E575B40023E546B404030241D0B40513797978A21227DF757C00757D00757E806F
:2041E00002426E0575020E2DB4030D204F030241FE05750575020E2DB406FA304FF3792AE5
:2042000078361227C8783979367A3E124298787679797A4112428C784079431242D640D1C1
:20422000794B787C1227DF7936783E1227DF797C78411227DFC227E54354806009D22778AC
:20424000437A011242BE784079431242D6794B783E1227DF30270778407A011242BE7979C9
:2042600078411227DF7841793E7AA2124298124334787C12427EA378A212427E21F374533C
:2042800031917A03A3E6319108DAF922E575B40607C000850100D0017B03C3E697C0008562
:2042A0000200F6D00008090ADBF1227B03C3E637C000850200F6D00008090ADBF122BA00FF
:2042C0000122C0017903C000C3E613F618D9FAD000DAF1D00122123364784BBA0002C32286
:2042E000C0017903C000C3E633F608D9FAD0004002DAEFD00122E564B40B0BC06475640135
:2043000012431FD06422B40E07C0647564006100B404026109B40507C0647564026100B4B4
:204320000003024344B4020690A580024376B4082602434A854664854465E575B40618E5E6
:2043400064B4000690A550024376B4080490A5782290A580024376E564904387124ADFE53D
:2043600064B4040930180F90A598024376B4050630180390A5C0E56575F008A42582F582C1
:20438000E5F03583F58322A400A428A450A468A480A4A8A4C0A408A4F8A500A528A428A488
:2043A00028A468A40043BB43D943F7440943BB43F74439446F44634475441B000000AE4768
:2043C00061000000AE4761000000AE4761000000AE476100000020B03214AE07CCCC4C14B7
:2043E000AE07CCCC4C14AE07CCCC4C14AE07CCCC4C0AD703666626000000AE47610000009E
:20440000AE4761000000E17A1414AE07CCCC4C14AE07CCCC4CB81E05E17A140000005EBA1B
:20442000090000005EBA090000005EBA090000005EBA090000005EBA09000000AE47610099
:204440000000AE4761000000AE4761000000AE4761000000AE4761000000AE4761000000AE
:20446000333333000000B81E050000008941000000003333330000005EBA090000005EBA2C
:20448000090000005EBA090000005EBA090000005EBA09000000E5D082D7E304643B7F8518
:2044A000EB09AE4781B8DE0E583984C2B5133333830A9718128380EB911DC8767E47A12239
:2044C0002DB27D52B827CCCC7C99D92C31087C8F023231087C852B37A7C67B0A573CCCCC6C
:2044E0007C5278411A2F7D7A944651B87E47A14B00008047A150378981EB9155BC7483A440
:20450000705AB81E8500405FB4C88600006439B48814AE68F97E8ACC4C6D08AC8C99D97129
:20452000ED7C8F5C4F760E2D92A4B07A53E395C2F57E39B498662683A3708D333333B91E23
:20454000051383001C0D0050010022000040420FA08601102700E803006400000A0000C01C
:2045600055C056E54675F006A424A5F8E6F54808E6F54908E65407F54AE6C000C21030E373
:2045800002D210C4540FF56D79481226B7795678801227C8D00008E6F54808E6F54908E621
:2045A0005407F54AE6C21130E302D211C4540FF56E79481226B7795678861227C8D056D0B2
:2045C0005522856D65A2109222788079A5E54675F006A429F99027581237750909E7540714
:2045E000F5F0E565C454F0302202D2E345F0F722856E65A2119222788679A8A1CDE5442494
:20460000FE502B755D31E546B40923E565B4020302462424FA40117831E624FE500A08E63C
:2046200024FE5004A85D0822A85D0802463FA85DE6C3940240012208E6C394024001227977
:204640003E123B5EE565C394034024E565B4030C7541F07542017543000246657541C075AE
:204660004200754300783E79417A3E5198793E12248F794002276AC24FC208E564B4003659
:2046800075300075310B753205753302753403753502122026302F0975381175390F024693
:2046A000A775380D75390D753700753600753A0F753B0F0248E6B4012F75300075311B751B
:2046C000321275330175341C75350F122026E57275F00A84753600F53785F03875390F7517
:2046E0003A0F753B0F0248E6B4023E75300075310175321175330175341775350F12202610
:2047000075370575380A753917753600753A0F753B0F0248E675300075310C75320E753360
:204720000A75341375350BC1FDB4031475300075310C75320E75330A75341375350BC1FD88
:20474000B4043375300075311C75321375331975341875350F122026E5709049199375F07B
:204760000A84753600F53785F038753900753A00753B0F0248E6B405357530007531187515
:20478000321375331775341375350F122026E57120E30675370802479C753707753600757D
:2047A000381C753901753A17753B0F0248E6B4064D75300075311275321375330B753401C6
:2047C000753517122026E57120E40F753711753800753911753A0A0247F520E00C7537007F
:2047E0007538187539180247F275370A75381175390F753A0F753600753B0F0248E6B407AF
:204800002675300075310575321775330075341275350F122026E57120E20675370102479C
:204820009C75370202479CB4082075300075310A75320C75331575340075350F122026E509
:204840007120E1030246A1024698B4092F75300075311375321875331875340575350F12D8
:204860002026E57275F00A84F53775360085F03875390F753A0F753B0F0248E6B40A207567
:20488000300075311775321375330E753414753500122026E57320E0030246980246A1B424
:2048A0000B1E75300075311C75320A75330A75341275350F122026304E030246980246A1EF
:2048C000B40C2075300075311275320B753301753411753517122026E57130E5030246981F
:2048E0000246A10201C6C053755300122149D0530208FFC052755200122026D0522290A6D8
:204900007F02490790A67AE0B4530CA3E0B44507A3E0B45402C322D32203060C183060E597
:2049200064701C302F06756404020E2DC23090A68574461241911222E4020197021AC9B472
:204940000106756409020E2DB40215C23090A684204E05744602495A744E124191021A81A5
:20496000B4030FC230C22F90A6847446124191021ADBB40403024993B40503024993B40652
:2049800003024993B40703024993B40803024993B40C2B302F3190A685744E12419190A6EB
:2049A0007A7870C23012419D202F03020197E6124191A308E61241911271B0021AC9B409B3
:2049C000030249C7B40A0F90A685744612419190A67F787221A3B40B1490A684744E204E7C
:2049E0000274461241911222E4C23021931222E4122396020E2DE564B4040DE57004B40618
:204A0000027400F570020E2DB40509E5716408F571020E2DB40619E57120E409D2E4C2E0C9
:204A2000F571020E2D20E004D2E04120C2E44120B40709E5716404F571020E2DB40809E5E6
:204A4000716402F571020E2DB40913E57204B41F027400F57290A682124191020E2DB40A6A
:204A600009E5736401F573020E2DB40005B22F020E2DB40B05B24E020E2DB40C09E5716470
:204A800020F571020E2D1222E4122396020E2DE564B4040DE57014B4FF027405F570020E19
:204AA0002DB40502410BB40614E57120E4044411412020E004C2E44120C2E04120B4070215
:204AC0004133B40802413FB40913E57214B4FF02741EF57290A682124191020E2D415EC003
:204AE000F0C333F5F093C5F00493F58285F083D0F022C23B200703125983900800E0FBA390
:204B0000E0FC904EB6D234124CC3C2344014E58730E206EAC39407500A904FBEEA51DF7463
:204B2000007322126CA07801900846E0F5F0A3E004547FB5F00CE0900F802480F582740FFE
:204B4000F022F014900F804480F582E8F022124C1D500122540FFA75F000740AA4F5F01222
:204B60004C1D500122540F25F0F5F0DAEDC322124C1DB4FFAE714E124C1DF5F09073BB7423
:204B80000093B4FF026123B5F011A3740093C5F0740193F58285F083740073A3A3A3617F0D
:204BA000900800E0FBA3E0FCC004C003124C1D5003024BE3B4FF39714E5003024BE3C2AFDF
:204BC000900800E0F8A3E0F9A3E0FAA3E0FBE5F028F8740039B5030BE8B50207740D124B05
:204BE000F7D23B900800D0E0F0A3D0E0F0D2AF22D0E0D0E0D2AF22C0E0900802E0F5F0A3EE
:204C0000E0F58385F082D0E0F0A38583F0E582900802F0A3E5F0B404027400F022900802C7
:204C2000E0B50307A3E0B50402D322C290850382850483E00B900800C0E0EB70060CBC04EA
:204C4000027C00F0A3ECF0D0E0C322911D4008B42002814BB40D0978047128126CA0D32248
:204C6000B43B028157B40A0281577A0C7830F608DA03024CA3911D40DEB42106780371281E
:204C8000815BB43A03024CA3B42C03024CA3B40D03024CA3B42003024CA3B43B03024CA322
:204CA000B40ACB7600B830028157C322905552124CB940041257B5B3221BBBFF061CBCFF17
:204CC000027C03C203858248858349914B5001228548828549837A0078308648740093C345
:204CE00094614010C3941A500B74009354DF5348DF024CF7740093B548086071D203A3084D
:204D000081DAB60003024D63605FB4FF5630344F200326B83019E64420C394614004941A14
:204D20004017E612652E78117128126CA0D322B83107E530B42A02A116793090084AE090C5
:204D40000E002582F5827A0DE76006F0090582DAF77400F0E5820490084AF07812A128719D
:204D600023D322A3740093A1080AA381D8C322221257B5402E904DA491B94027EAC31370CD
:204D8000129057A091B9401BEAC313700302193602191F124DEB74302020027431126D457E
:204DA00002597A223A434F4E54003A636F6E74696E756F7573003A434F4E543F003A636F44
:204DC0006E74696E756F75733F00FF202F2C124DE17436024DF2202F21124DE17433024DC4
:204DE000F274FF126D457431026D45202F0CB1E17432126D457402026D45221257B55022FE
:204E0000E546B40403024E11B40503024E11302003D21C2278057128900848E04410F0D2DF
:204E20004622904E4691B9401CEAC313700D904E6591B94010EAC313F57422E574904E950F
:204E400051DF026C1D223A534F5552003A736F75726365003A534F55523F003A736F757262
:204E600063653F00FF4255530062757300494D4D00696D6D65646961746500455854006510
:204E8000787465726E616C2C004D414E004D414E55414C00FF4E654E6D4E7B4E891257B523
:204EA000401190500E91B940099050F1EA51DF74007322026C9B726561643F004D45415322
:204EC0003F00726561643F3F006D6561737572653F006D6561737572653F3F004D454153B2
:204EE0003F3F0072656D6F74650061626F727400494E4954005452494700434F4E460043BD
:204F0000414C43005354415400535953540043414C0043414C3F002A636C73002A65736580
:204F2000002A6573653F002A6573723F002A69646E3F002A6F7063002A6F70633F002A72C1
:204F40007374002A737265002A7372653F002A7374623F002A7473743F002A747267002A2C
:204F6000776169006C6F63616C006C6F636B6F757400696E69746961746500747269676572
:204F80007200636F6E6669677572650063616C63756C61746500737461747573007379732C
:204FA00074656D0063616C6962726174696F6E0063616C6962726174696F6E3F00FF57D92D
:204FC0005B6E5B0C5B6E5AFF5AFF1A174D6F4D704DFB4E9D5BB56446665E69CD6AFE6BC101
:204FE0006BE16BF96C006C1A6C7E6C8B6CAA6CB26CCC6CD86D126D3E6D411A296D424D70F7
:205000004DFB4E9D5BB56446665E69CD6AFE3A564F4C54003A43555252003A4652455100E4
:205020003A524553003A54454D50003A5045414B003A434150003A434C5244003A44494FFE
:2050400043003A46554E433F003A52414E47003A766F6C74616765003A63757272656E749D
:20506000003A6672657175656E6379003A726573697374616E6365003A74656D7065726191
:2050800074757265003A7065616B686F6C64003A63617061636974616E6365003A636C72AD
:2050A0006475616C003A64696F6374657374003A66756E6374696F6E3F003A72616E67658B
:2050C000003A52414E473F003A72616E67653F003A434C5252003A636C727265636F726442
:2050E000003A44495350003A646973706C617900FF51295144515B519551E5524252C65341
:20510000195324561A56FA51295144515B519551E5524252C653195324561A56FA569056DD
:205120009052FC52FC63E163E11257B54013905332124CB9400A905341EA124ADF740073A4
:2051400022026C9B1257B540F8905332124CB940EF905347EA124ADF7400731257B5402EB1
:2051600075480A1254B74015600DB40113D24D120F37C24D025465120F3702547D025307F9
:20518000B4020BD24D120F37C24D3031F022120F373031E9221257B540407548061254B218
:2051A000403F6020B4011D0251B2124CAC4032EA6012C216D24D856A55855545120EFBC20A
:2051C0004D025465856A55E56AC0E0D231120EFBD231D0E0F55502547D22120EFB30310107
:2051E00022025307221257B5404F9055F2124CB94028EAC3940250328A551257B5401C12DC
:205200004CAC4016EA6014E555C22C6002D22CD24D120F90C24D3031012222E555C21B605E
:2052200002D21B120F903031F122600DD24D120F90C24DC22C3031E222120F90C21B3031CC
:20524000D9221257B540699055C7124CB940618A561257B5405BC046E546B40006754604E5
:2052600002527FB40102415DB4020675460502527FB40302416BB4040302527FB405DE121B
:205280005E8A854657D0464027856A55E556C313B40203D21C226002D24CE557F548B405B7
:2052A000061215940252AA12156A30310302548022E556C313B40203D21C226002D24C12D6
:2052C00015113031EB221257B54021C046754609125E8AD04640151257B5500D856A55D2FB
:2052E0004C120FACC24C02547D0253071257B550F8D24C120FACC24C3031EE22E546B404A5
:2053000003025307B40509124E18780E124B28222023062024033025EE1257B5500302166B
:20532000B3024B23754807121C32303103020F5D61073A6463003A6163003A616364630028
:20534000FF534D538153B553E9541D54517548001254B2400F600FB40112D24D120E3DC2E8
:205360004D0254656107120E3D02547DB4020BD24D120E3DC24D3031EB22120E3D303118FD
:20538000227548011254B2400F600FB40112D24D120E6FC24D0254656107120E6F02547D4E
:2053A000B4020BD24D120E6FC24D3031EB22120E6F3031E42275480C1254B2400F600FB4B8
:2053C0000112D24D120E75C24D0254656107120E7502547DB4020BD24D120E75C24D303187
:2053E000EB22120E753031E422754802125518400F600FB40112D24D120E56C24D02546582
:205400006107120E5602547DB4020BD24D120E56C24D3031EB22120E563031E4227548036B
:20542000125518400F600FB40112D24D120EA9C24D0254656107120EA902547DB4020BD21F
:205440004D120EA9C24D3031EB22120EA93031E42275480D125518401F601FB4013FD24D4F
:20546000120EAFC24D303110855545120EE7C216744175F02B022A9D6107120EAF3031F841
:20548000855544122972C217744075F002122A9D202D0122854445757500021BCAB4020B64
:2054A000D24D120EAFC24D3031CE22120EAF3031C7221257B5405D1BBBFF061CBCFF027C9A
:2054C00003124C1D4040B4200281C1B42C030254EE1BBBFF061CBCFF027C03C04685484643
:2054E000125E8AD046500122856A550254F17555801257B54011124CAC400BEA6009E55503
:2055000020E70DC3740122E55520E708C3740022C3740222C37403221257B540F781B755E2
:20552000405540555B555B5591555B55A4553D553D55FF557055405540555B55402000FFDC
:20554000302E320032003230003230300031303030002C4031002C403200FF302E303200DA
:20556000302E32003130002C4031002C403200FF32303000323030300032652B340032651F
:205580002B350032652B36002C4031002C403200FF302E3200320032300032303000313062
:2055A000303000FF3230300032652B330032652B340032652B350032652B360032652B3727
:2055C0000032652B3800FF3A504F53003A706F736974697665003A4E4547003A6E65676110
:2055E00074697665003A524553003A726573657400FF630066002C4031002C403200FF323E
:20560000652D380032652D370032652D360032652D350032652D3400FF221257B540081241
:205620004CAC40F5BA0042202F1A74FF126D457431126D45905868E546932431126D45749D
:2056400002126D45E546B4040302564FB40511C0E0301805742D02565B742B126D45D0E0D9
:20566000905804124ADF026C62300A21202F1A74FF126D457431126D45905868E54793249C
:2056800031126D457402126D45E547C1606107221257B54008124CAC40F5BA0019E546A8B9
:2056A0004490551F124ADFB80003026C1D740093A370FA18C1A7300AD4E547A845C1A19074
:2056C00057AC124CB9402F8A551257B54012124CAC4023EA600AE555700302126802145D95
:2056E000E5557009202D03021212021290202D0302140D02147522024B231257B540F89067
:205700005783124CB940EFEAC3940250B28A568A07BA000D9057A0124CB940DAEAC313F57F
:20572000551257B54031905552124CAC40C8EA6026AA56BA010B124DEB7431201628025760
:2057400064E5557007D2167461025750C216744175F02B122A9D22AA56BA0111124DEB742C
:20576000312017027430126D4512597A22E5557007D217746002577CC217744075F0021207
:205780002A9D223A6175746F003A6175746F3F003A44495200646972656374696F6E00FF22
:2057A0006F6E0031006F6666003000FF757000646F776E00FF1BBBFF061CBCFF027C031290
:2057C0004C1DB40D04C207D322B43B04D207E1C7B40A02E1C5C207C322F1B5500B7830901C
:2057E000081D1227F6025890124CAC4016C002783090081D1227F6D00290587DEA124ADF61
:205800007400732258225826582A582E58325836583A583E58435848584C584F5853585A5C
:2058200058614443560041435600444341004143410056504B0041504B004F484D0044492D
:205840004F430054454D500043415000485A0044424D0041432B4443560041432B44434134
:205860000044424D4443560003030303040403040403020306060658835A9B5AFF588A5ADA
:20588000A65B0CD205C206C20022200103025307C201202F2E74FF126D450258A30258EC3E
:2058A0000258B77432126D457431126D4574313006053005027432304F0104126D45740289
:2058C000126D451258C902597A854648854449754A00304F05742D126D457406C395527893
:2058E00030F9C000080808B60E34D0007430126D45126D45126D45126D45126D45126D45A3
:205900007439126D457445126D45742B126D457439026D45740D126D45740A026D45D0008E
:205920007A06126DCF400F3014051A080259363015047A040808B90005742E126D45E6B4B9
:205940000F027400F5F0C3940AE5F050022430126D450819DAE0E548905A1A124ADFE549C8
:2059600075F003A4C0E093126D45D0E004C0E093126D45D0E00493026D45202F0122740D8B
:20598000126D45202F0122740A026D4530070122302F16743D3045027421304602743F12D6
:2059A0006D45743E126D45217A025A193045030259B530466474FF126D457432126D457438
:2059C00031126D457436126D457402126D457443126D45744F126D45744D126D45744D12D0
:2059E0006D457441126D45744E126D457444126D457420126D457445126D457452126D451B
:205A00007452126D45744F126D457452126D457421126D457421126D45225A385A385A5643
:205A20005A565A385A565A5F5A745A775A7D5A8C5A475A385A565A47452D33452B30452B26
:205A400030452B30452B30452B30452B30452B30452B30452B30452D33452D33452B304587
:205A60002B30452B33452B33452B33452B36452B36452B36452B30452B30452B30452D3965
:205A8000452D39452D39452D36452D36452B30452B30452B33452B33452B36200A030253B2
:205AA00007D206C20022C201200A03025307202F2F74FF126D457839025AC8B60E0A7431DA
:205AC000126D457438025AD47432126D457431126D45743130080104126D457402126D4573
:205AE000125AE5217A854748854549754A01300805742D126D457406C39553783601E1205C
:205B00000A03025307D205D206C20022C201200A03025307202F4674FF126D457833B60E02
:205B20001178397432126D457431126D457430025B4D7432126D457431126D457436025BA8
:205B40004D7432126D457432126D457432304F010430080104126D457402126D4578309087
:205B6000081D1227F611C9742C126D4541AE1257B55026202F1974FF126D457432126D4507
:205B80007431126D457431126D457402126D45783090081D1227F60183124CAC4016C002C7
:205BA000783090081D1227F6D002905877EA124ADF740073221257B54013905BD0124CB9B7
:205BC000400A905C04EA124ADF74007322024B233A6462003A524543003A7265636F726420
:205BE000003A52454C003A72656C6174697665003A6D6F64653F003A4C494D003A6C696D3C
:205C0000697400FF5C145D0E5D0E5E5A5E5A60F061E861E81257B54012905CC8124CB94095
:205C20000D905CFCEA124ADF740073024B23221257B5400C905C7A124CB940078502692291
:205C4000024B2322A869905C7A0256A71257B540EF905CF0124CB940EAEAC313700EE54669
:205C6000B40003021750B401D7021750E546B40B03021750B40EC9021750383030300031CC
:205C800032303000313030300039303000383030003630300035303000333030003235302B
:205CA000003135300031333500313235003132340031313000393300373500353000313650
:205CC00000380034003200FF3A494D50003A696D706564616E6365003A494D503F003A6925
:205CE0006D706564616E63653F003A73746174006F6E0031006F6666003000FF5C2F5C2FA4
:205D00005C445C445C4C5C5E5C5E5C6C5C6C1257B54012905DBC124CB9400D905DF9EA1238
:205D20004ADF740073024B232212193EC22575F0147442122A9D02197112193EC22375F02A
:205D4000127442122A9D0219881257B54054905E09124CB94020EAC313701C1257B5401322
:205D6000905E24124CB9400EEAC3940240058A3D02409E024B2322124DD6E53DC3940A50E3
:205D80000AE53D2430126D45317A22B40A097432126D457430A185C0E07431126D45D0E03E
:205DA000A18312193EC22475F00F7442122A9D02199978309008161227FB018A3A4D415884
:205DC000003A6D6178696D756D003A4D494E003A6D696E696D756E003A41564552003A6133
:205DE000766572616765003A415645523F003A617665726167653F00FF5D295D295D395D30
:205E0000395D495D495DB25DB23A434F554E00636F756E74003A434F554E3F00636F756EE4
:205E2000743F00FF300031003200330034003500360037003800390031300031310031327D
:205E400000313300313400313500313600313700313800313900323000FF1257B540129010
:205E600060C3124CB9400D9060E2EA124ADF740073024B2322125F01400F7948785E12279A
:205E8000C8A2229212856A682222125F01500122E56A606BE5487067126DD9504BE54970A3
:205EA00008E54AB40220025EF1C394026005501E025EFFE54A7017E54B7013E54C700FE5FB
:205EC0004D700B025EFF6037B40103025EFF056AE5469013859314C0E0C3956A5005D06A93
:205EE000025EFFD0E0025EFFE549B40212E54A700EE54B700AE54C7006E54D7002156AC35A
:205F000022124C4B5002D322756AFF754800754900754A00754B00754C00754D00793078F3
:205F200048E7C222C227B42D05D222025F31B42B0209E76040B42E072027CBD227E131B4CE
:205F40004503025F59B40003025F7512604940B6F6082027DC056AE13109E7B42D0D09E791
:205F600012605F40A164FF04025F75B42B0209E712605F4091256AF56A7A05E5487025E5AB
:205F800049C394025021126DD94035854948854A49854B4A854C4B854D4C754D00156ADA84
:205FA000DA025FC0B40105126DD95014854C4D854B4C854A4B85494A854849754800056AC2
:205FC000E54690607D9320E70DC56A20E713C3956A5033025FF1C56A20E711C3956A026037
:205FE00006C56AC3956A64FF04025FF1C3956A5015854C4D854B4C854A4B85494A85484948
:206000007548000470EBF56AE546B40203026019B40303026019B40D1CE56AB40317156AF8
:20602000854D4C854C4B854B4A854A49854948754D00026035E54690138593C3956A500885
:206040007808124B28025F0622C39430400AF5F0940A5004E5F0C3227802124B28D322114B
:20606000494019FD09E7B40004ED02607B1149400BFDE5F075F00AA42D0163C322FFFFFE13
:20608000FEFFFE020004F903FFFFFEFFD322C044C052856844795EA212924F78301227C8B7
:2060A0001229FC125892D052D044221257B540DC9060D6124CB940D4EAC313700302188C51
:2060C0000218C93A62617365003A626173653F003A73746174006F6E0031006F6666003085
:2060E00000FF5E75608E60AB60BD60BD60C060C0202F78D2277D0420230A20240720250439
:206100007D01C227E546640B6008E546640E6002800B3027020505ED2402FDD227E54630C5
:206120000F093027020505ED2403FDC00574FF126D45D005EDC39409401D7432126D45ED01
:2061400075F00A842430C0F0126D45D0F0E5F02430126D450261667431C005126D45D0050B
:20616000ED2430126D457402126D45C227302311744D126D457441126D457458126D45D233
:2061800027302411744D126D457449126D45744E126D45D2273025117441126D4574561233
:2061A0006D457447126D45D227E546B40B030261B4B40E14302705742C126D457444126DE4
:2061C000457442126D45D227300F19302705742C126D457452126D457445126D45744C1216
:2061E0006D45D22712597A221257B54012906294124CB9400D9062E1EA124ADF74007302B2
:206200004B23221257B540F79062D5124CB940F2EAC3137005D21D021144C21D7441021167
:2062200046125F01400F794878801227C8A2229210856A6D2222125F01400F794878861205
:2062400027C8A2229211856A6E2222C044C052A210856D4479800199C044C052A211856EFA
:206260004479860199201D0302530790083BE0B4120B124DEB7430126D4502597AA3E0B463
:206280000E0B124DD6742D126D45026290124DEB743141773A73746174003A555050003A51
:2062A0007570706572003A4C4F57003A6C6F776572003A5550503F003A75707065723F0010
:2062C0003A4C4F573F003A6C6F7765723F003A6661696C3F006F6E0031006F666600300023
:2062E000FF62036221622162366236624B624B62586258626562156215621A621A2009035D
:20630000026386C209C20B123122122972300A06123254122A3A126DD95012B40B030263B9
:2063200038B40E03026338B4082C026338B40608E544B40603201336301518746275F0098C
:20634000122A9D744275F007122A9D744275F006022A9D301418746275F007122A9D744252
:2063600075F009122A9D744275F006022A9D746275F006122A9D744275F007122A9D744221
:2063800075F009022A9D22B4051820130920140C90644102639F90643802639F90643D02BB
:2063A0006C1DEAC313700241FD20090D1263BA746275F021122A9DD20922C2D5122263120D
:2063C00022FE75300075310375320175330575340075350F755200755300C225D20B022023
:2063E0002A906410124CB94026EAB4049A906429124CB9401AEA6009B4020C12701F02640C
:206400000A12701802640A1270117116022E75226F6E0031006F66660030003A7261746528
:20642000003A726174653F00FF736C6F77006D6964006661737400FF534C4F57004D49446D
:206440000046415354001257B54014906613124CB9400F906656EAC313124ADF74007302FD
:206460004B23221257B540F7906577124CB940F29065B9EAC313124ADF740073740030044A
:2064800005202D027401F5497400300202D2E0301D12C0E090083BE0B41205D0E00264A464
:2064A000D0E0D2E7300002D2E4302005300102D2E5F548900840E05548F548A3E05549F567
:2064C00049227549017548B70265551264DC400B900840E548F0A3E549F02222124C4B40E2
:2064E0004BB8360302650C7436C398402B1828F9E6C394304022F5F0C3940A501BE5F0F7F8
:206500001819B82FEB7400F719B92FFB78307948902758123775C322B83009E612652E7802
:20652000100265267809124B28126CA0D322C0E090084AE0900E002582F582D0E0F0058260
:206540007400F0E58290084A04F022900840E0F548A3E0F549124DCB754A0079481226B729
:2065600079577A05E72430126D4509DAF702597A917C5320E4A1553A434F4E443F003A638A
:206580006F6E646974696F6E3F003A454E4142003A656E61626C65003A454E41423F003A9E
:2065A000656E61626C653F003A4556454E543F003A6576656E743F00FF64C264CB654B6536
:2065C0007065E665F1660165E61257B54014906577124CB9400F9065C1EAC313124ADF748F
:2065E0000073024B2322124DEB7430126D4502597A91DC400B900842E548F0A3E549F0227D
:2066000022900842A14E9008407400F0A3F0A3F0A3F0223A4F504552003A6F706572617443
:20662000696F6E003A4F5045523F003A6F7065726174696F6E3F003A51554553003A717583
:20664000657374696F6E003A50524553003A70726573657400FF6463657065C966061257C9
:20666000B54012906789124CB9400D9067B7EA124ADF740073024B23221257B54018906776
:20668000C3124CB94013BA0402C179EAC3137003D24E22C24E22024B232290776B026C1D9D
:2066A000026777026740900846E0F5F0A3E0C5F0B5F0ED7400C0E0202FE97D019067D574DA
:2066C00000930505A370F81505D0E0C0E09067DA124ADF7400930505A370F81505D0E0C0F6
:2066E000E0C3941040150505900849E0900E002582F582E00505A370FA1505C00574FF121C
:206700006D45D005ED75F00A846021C0F0C0E07432126D45D0E02430126D45D0F0E5F02456
:2067200030126D457402126D450267407431C005126D45D005ED2430126D457402126D4540
:206740009067D5126C68D0E0C0E09067DA124ADF126C68D0E0C39410401A900849E0900E75
:20676000002582F582126C74E58204900849F07422126D4502597A04547F900846F0149055
:206780000F804480F582E0C1B53A626565706572003A42454550003A564552533F003A766D
:2067A000657273696F6E3F003A4552523F003A6572726F723F00FF66796679669A669A66E2
:2067C000A666A66F6E0031006F66660030003A7374617400FF45525220006800680D682229
:2067E0006836684F6868687D689468AC68C568E468FC69196932694A69616977698E69A721
:20680000302C224E6F206572726F7222002D3130302C22436F6D6D616E64206572726F72BC
:2068200022002D3130322C2253796E746178206572726F7222002D3130332C22496E766198
:206840006C696420736570617261746F7222002D3130392C224D697373696E67207061729A
:20686000616D6574657222002D3231302C2254726967676572206572726F7222002D32319A
:20688000312C22547269676765722069676E6F72656422002D3232312C2253657474696EF4
:2068A0006720636F6E666C69637422002D3232322C2244617461206F7574206F66207261F2
:2068C0006E676522002D3232342C22496C6C6567616C20706172616D657465722076616C4B
:2068E000756522002D3333302C2253656C662074657374206661696C656422002D333030BA
:206900002C224465766963652D7370656369666963206572726F7222002D3431302C225199
:206920007565727920494E54455252555054454422002D3433302C22517565727920444529
